:100000000C943D000C94B6030C945A000C945A00C6
:100010000C945A000C945A000C945A000C945A00F8
:100020000C945A000C945A000C945A000C949206AA
:100030000C9456060C9411060C945A000C945A0019
:100040000C945A000C945A000C945A000C94C70358
:100050000C945A003907450751075D076907750772
:1000600081079E07AA07B607C207CE07DA07E60789
:10007000F207FE070A081608220811241FBECFE562
:10008000D4E0DEBFCDBF10E0A0E6B0E0E0E8F5E1EF
:1000900002C005900D92A23CB107D9F721E0A2EC75
:1000A000B0E001C01D92AB34B207E1F70E9417091E
:1000B0000C94BE0A0C940000AF92BF92CF92DF92D4
:1000C000EF92FF920F931F93CF93DF9300D000D056
:1000D000CDB7DEB757016A017B01C00ED11EE21E0B
:1000E000F31E182F1E604C155D056E057F0539F156
:1000F00049835A836B837C830E941501812F0E9460
:1001000021015A81852F0E9421014981842F0E945B
:100110002101F50181915F010E9421010E941B01D3
:100120008FE19EE40197F1F700C0000049815A81F8
:100130006B817C814F5F5F4F6F4F7F4FD4CF0F90AC
:100140000F900F900F90DF91CF911F910F91FF9023
:10015000EF90DF90CF90BF90AF9008958F929F92D5
:10016000AF92BF92EF92FF920F931F93CF93DF93C3
:1001700000D000D0CDB7DEB74A015B01800E911EE2
:10018000A21EB31E182F1E60082F0F6048155905B8
:100190006A057B0541F149835A836B837C830E9406
:1001A0001501812F0E9421015A81852F0E94210172
:1001B0004981842F0E9421010E941501802F0E94F5
:1001C000210180E00E94280183B1F70181937F0122
:1001D0000E941B0149815A816B817C814F5F5F4F77
:1001E0006F4F7F4FD3CF0F900F900F900F90DF91F5
:1001F000CF911F910F91FF90EF90BF90AF909F9084
:100200008F9008959B01AC0160E87EE380E090E070
:100210000E94130A822F203130F030E02051310942
:1002200035952795822F80B9089584EA86BF06B652
:1002300007FEFDCF089584E986BF06B604FCFDCF16
:10024000089583B984E886BF06B607FEFDCF0895FA
:1002500020E4829FC0011124846886BF06B607FE91
:10026000FDCF0895EF92FF921F93CF93DF9300D0BD
:1002700000D0CDB7DEB7122F3C834B836A838983CE
:100280000E94150189810E9421016A81862F0E94A6
:100290002101E12E3C81F32E4B81140F1E1531F00C
:1002A000F70181917F010E942101F8CF0F900F90FB
:1002B0000F900F90DF91CF911F91FF90EF900C94D2
:1002C0001B01FF920F931F93CF93DF9300D01F92D8
:1002D000CDB7DEB7182FF42E2A833B8369830E94A3
:1002E0001501812F0E9421016981862F0E94210121
:1002F0000E94150181E0810F0E942101FA942A8158
:10030000022F3B81132FFFEFFF1661F081E0F11008
:1003100001C080E00E94280183B1F80181938F0120
:10032000FA94F1CF0F900F900F90DF91CF911F9122
:100330000F91FF900C941B0184B38C6184BB84B338
:100340008F7984BB85B3837E85BB85B3806685BB8F
:100350008AE08A95F1F700C023B322952695237091
:1003600080E1289F9001112484B3837E84BB84B3F1
:10037000806684BB85B38C6185BB85B38F7985BB73
:100380008AE08A95F1F700C083B3869586958770D9
:10039000282B87E382270895982F8091CB00813006
:1003A00049F120F0823009F44AC04FC09093CA004E
:1003B000F8944091120150911301609114017091D1
:1003C00015014093C6005093C7006093C800709316
:1003D000C90048E853E160E070E04093C2005093E8
:1003E000C3006093C4007093C500789491E090932B
:1003F000CB0008958091120190911301A0911401F6
:10040000B09115014091C6005091C7006091C8009D
:100410007091C900841B950BA60BB70B4091C200CD
:100420005091C3006091C4007091C5008417950776
:10043000A607B70750F082E08093CB0006C08091FA
:10044000CA00891719F01092CB0080E00895D59A60
:10045000D49AD39AD29A089580FF02C0DA9A01C042
:10046000DA9881FF02C0DB9A01C0DB9882FF02C0EC
:10047000DC9A01C0DC9883FF02C0DD9A0895DD9804
:100480000895CF93C82F0E942702D99A8C2F829566
:100490008F700E942C02D998D99A8C2F0E942C021E
:1004A000D9988FEF94E00197F1F700C00000CF9149
:1004B0000895D8980C944102D89A0C94410290E87F
:1004C000980F983008F487700C945C02CF93DF93F8
:1004D000EC018991882319F00E945F02FACFDF9125
:1004E000CF910895CF93DF93CDB7DEB761970FB665
:1004F000F894DEBF0FBECDBF4AE0BE016F5F7F4FF5
:100500000E94580A0E94660261960FB6F894DEBFF8
:100510000FBECDBFDF91CF910895CF93DF93CDB7BD
:10052000DEB761970FB6F894DEBF0FBECDBF40E1D6
:10053000BE016F5F7F4F0E94580A0E94660261965B
:100540000FB6F894DEBF0FBECDBFDF91CF910895F7
:10055000823031F0833031F0813029F480E403C0FF
:1005600080E101C080E56058860F0C94590281E05B
:100570000E9459028FE89CE40197F1F700C0000047
:10058000089583E00E9459028FE89CE40197F1F7F7
:1005900000C0000008958EE00C9459028CE00C9489
:1005A00059028FE00C9459028CE00C9459020E947D
:1005B0002702D09AD19AD69AD89AD99A8FE59AEEEC
:1005C0000197F1F700C00000D998D898D99A83E034
:1005D0000E942C02D9988FE090E40197F1F700C0B7
:1005E0000000D99A83E00E942C02D9988FE891E00C
:1005F0000197F1F700C00000D99A83E00E942C0215
:10060000D9988FE891E00197F1F700C00000D99ADE
:1006100082E00E942C02D9988FE891E00197F1F7CF
:1006200000C0000088E20E94590288E00E9459023E
:100630008CE00E94590286E00E9459020C94B70295
:10064000EF92FF920F931F93CF93DF9320910A01B4
:1006500020FF1FC0EC0160E080E00E94A802CE01F4
:100660000E9466027E0101E110E020E030E040E0FF
:1006700050E0BA0180EA0E94AE0060E081E00E9492
:10068000A802CE010E94660280910A018E7F8093AB
:100690000A01DF91CF911F910F91FF90EF90089584
:1006A000EF92FF920F931F93CF93DF9320910A0154
:1006B00020FF22C0EC016AE080E00E94A8028EE7E1
:1006C0000E945F02CE010E9466027E0101E110E0FD
:1006D00020E030E040E050E0BA0180EA0E94AE0045
:1006E00060E081E00E94A802CE010E946602809133
:1006F0000A018E7F80930A01DF91CF911F910F91A4
:10070000FF90EF900895EF92FF920F931F93CF9376
:10071000DF9320910A0120FF22C0EC016AE080E013
:100720000E94A8028EE70E945F02CE010E9466022C
:100730007E0101E110E020E030E040E050E0BA014D
:1007400080EA0E94AE0060E081E00E94A802CE0133
:100750000E94660280910A018E7F80930A01DF91D8
:10076000CF911F910F91FF90EF9008951F920F92DC
:100770000FB60F9211248F9380910A0182608093AB
:100780000A018F910F900FBE0F901F9018951F9226
:100790000F920FB60F9211248F939F93AF93BF9335
:1007A0008091120190911301A0911401B091150153
:1007B0000196A11DB11D8093120190931301A09386
:1007C0001401B0931501BF91AF919F918F910F903C
:1007D0000FBE0F901F901895CF93DF93DC0190E030
:1007E00041505109ED01C40FD51F961789F07C9136
:1007F00080E0282F30E02417350738F4FD01E20FA0
:10080000F31F218120838F5FF4CF78839F5FEDCF2B
:10081000DF91CF910895CF93DF93EC0180910A018E
:1008200080FF13C060E080E00E94A802CE010E9419
:10083000660260E081E00E94A802CE010E9466028A
:1008400080910A018E7F80930A0180910A0181FFC5
:100850000DC08BE091E00E94B9088EE091E00E940B
:10086000E20880910A018D7F80930A0160E081E0B7
:100870000E94A80280910D018A3018F480E30E9442
:100880005F0280910D0190E00E9472028AE30E9453
:100890005F0280910C018A3018F480E30E945F02AD
:1008A00080910C0190E00E9472028AE30E945F0234
:1008B00080910B018A3018F480E30E945F028091DE
:1008C0000B0190E00E94720280910901882321F0BF
:1008D000813009F453C07AC081E080930901EFEDC3
:1008E000F0E001900020E9F73197EF5DF040809152
:1008F000080190E0EE0FFF1F8E179F0710F0109277
:10090000080140E06FED70E08EE091E00E94150775
:10091000EFEDF0E001900020E9F73197AF014F5D76
:100920005040609108018FED90E00E94EC0368E078
:1009300081E00E94A8028FED90E00E946602F89488
:1009400088EA91E6A0E0B0E08093DB009093DC00C1
:10095000A093DD00B093DE0080911201909113010D
:10096000A0911401B09115018093D7009093D80005
:10097000A093D900B093DA00789428C08091120136
:1009800090911301A0911401B09115014091D700ED
:100990005091D8006091D9007091DA00841B950BBA
:1009A000A60BB70B4091DB005091DC006091DD009D
:1009B0007091DE0084179507A607B70738F080917D
:1009C00008018F5F8093080110920901DF91CF9198
:1009D0000895EF92FF920F931F93CF93DF93EC0153
:1009E00080910A0180FF2EC06AE080E00E94A80288
:1009F0008EE70E945F02FE0101900020E9F7319727
:100A0000AF014C1B5D0B6091D600CE010E94EC0340
:100A1000CE010E9466027E0101E110E020E030E09C
:100A200040E050E0BA0180EA0E94AE0060E081E060
:100A30000E94A802CE010E94660280910A018E7F68
:100A400080930A018091D500882321F0813009F438
:100A500044C066C081E08093D5008091D600883084
:100A600018F01092D60003C08F5F8093D6006AE022
:100A700080E00E94A8028EE70E945F02FE010190C2
:100A80000020E9F73197AF014C1B5D0B6091D60058
:100A9000CE010E94EC03CE010E946602F89488EA1F
:100AA00091E6A0E0B0E08093D1009093D200A093B3
:100AB000D300B093D4008091120190911301A091C2
:100AC0001401B09115018093CD009093CE00A093B6
:100AD000CF00B093D000789423C080911201909100
:100AE0001301A0911401B09115014091CD005091D6
:100AF000CE006091CF007091D000841B950BA60BA7
:100B0000B70B4091D1005091D2006091D300709109
:100B1000D40084179507A607B70710F01092D500E8
:100B200080911601823159F48091CC008F5F8093BF
:100B3000CC0080910A018B7F80930A0132C0813101
:100B400021F090910A0192FD0CC01092CC0080918E
:100B50000A01846080930A018BE091E00E94B30651
:100B600020C0843111F08432E1F48091CC008230D5
:100B700039F480910C018C33A0F010920C0111C05B
:100B8000833049F0813069F480910D01883148F05B
:100B900010920D0106C080910B018C3310F0109261
:100BA0000B0160E081E00E94A80280910D018A3073
:100BB00018F480E30E945F0280910D0190E00E9492
:100BC00072028AE30E945F0280910C018A3018F45D
:100BD00080E30E945F0280910C0190E00E9472020B
:100BE0008AE30E945F0280910B018A3018F480E34F
:100BF0000E945F0280910B0190E0DF91CF911F91E5
:100C00000F91FF90EF900C94720290BD89B988E12A
:100C10008AB986E880BD8A9A929A8AB1886D8AB923
:100C200008951F920F920FB60F92112492980F9071
:100C30000FBE0F901F901895909117019F5F9F70A6
:100C4000209118019217E1F3E92FF0E0E75EFE4FE3
:100C5000808390931701559A0895CF93DF93EC0109
:100C60008991882319F00E941C06FACFDF91CF9159
:100C70000895CF93DF93CDB7DEB761970FB6F894A1
:100C8000DEBF0FBECDBFAB01BE016F5F7F4F0E94C5
:100C90004D0ACE0101960E942D0661960FB6F8947A
:100CA000DEBF0FBECDBFDF91CF9108951F920F928F
:100CB0000FB60F9211248F939F93EF93FF93909110
:100CC000170180911801981771F0809118018F5FBA
:100CD0008F7080931801E0911801F0E0E75EFE4FFD
:100CE00080818CB901C05598FF91EF919F918F91B0
:100CF0000F900FBE0F901F90189590912901809131
:100D00002A01981769F080912A018F5F8F71809373
:100D10002A01E0912A01F0E0E55DFE4F808108950F
:100D200080E008951F920F920FB60F9211248F93B7
:100D30009F93EF93FF938CB1E0912901EF5FEF71E7
:100D400090912A01E91731F0E0932901F0E0E55D87
:100D5000FE4F8083FF91EF919F918F910F900FBE77
:100D60000F901F901895CF93DF9300D01F92CDB7AF
:100D7000DEB7FC018081898381818A8382818B83B4
:100D80009E012F5F3F4F43E062E082EA0E94320102
:100D90000F900F900F90DF91CF910895CF93DF9335
:100DA00000D000D0CDB7DEB7FC018081898381817E
:100DB0008A8382818B8383818C839E012F5F3F4F47
:100DC00044E065E082EA0E9432010F900F900F909C
:100DD0000F90DF91CF910895EF92FF920F931F93A1
:100DE000CF93DF938C01FC0101900020E9F731974C
:100DF000EF01C81BD90B60EC70E00E94460AEE249C
:100E0000E394F12CEC16FD0648F460EC70E0C801A8
:100E10000E943B0A8FEFE81AF80AF4CFDF91CF91D6
:100E20001F910F91FF90EF9008959F92AF92BF9204
:100E3000CF92DF92EF92FF920F931F93CF93DF93A6
:100E4000CDB7DEB7AD970FB6F894DEBF0FBECDBFFE
:100E50005C016B01942EDC011196EC918E2F90E0D9
:100E60008730910508F05BC0FC01E65DFF4F0C94F4
:100E7000350AFE0172967F0101E110E020E030E0CA
:100E800046E650E060E070E047C0CE0142967C014B
:100E900001E110E020E030E047E750E060E070E082
:100EA0003BC0DE0152967D0101E110E020E030E020
:100EB00048E850E060E070E02FC0FE0172967F01CC
:100EC00001E110E020E030E049E950E060E070E04E
:100ED00023C0CE0142967C0101E110E020E030E029
:100EE0004AEA50E060E070E017C0DE0152967D01F2
:100EF00001E110E020E030E04BEB50E060E070E01A
:100F00000BC0FE0172967F0101E110E020E030E0AD
:100F10004CEC50E060E070E080EA0E94AE00D50149
:100F20001296EC918E2F90E0FC013197EC30F10598
:100F300008F096C0EF5CFF4F0C94350AFE01319625
:100F40007F0101E110E020E030E04DED50E060E095
:100F500070E083C0CE0101967C0101E110E020E049
:100F600030E04EEE50E060E070E077C0DE011196B8
:100F70007D0101E110E020E030E04FEF50E060E063
:100F800070E06BC0FE0131967F0101E110E020E0CE
:100F900030E040E151E060E070E05FC0CE010196DA
:100FA0007C0101E110E020E030E041E251E060E04E
:100FB00070E053C0DE0111967D0101E110E020E0F8
:100FC00030E042E351E060E070E047C0FE0131965E
:100FD0007F0101E110E020E030E043E451E060E017
:100FE00070E03BC0CE0101967C0101E110E020E001
:100FF00030E044E551E060E070E02FC0DE01119682
:101000007D0101E110E020E030E045E651E060E0E4
:1010100070E023C0FE0131967F0101E110E020E085
:1010200030E046E751E060E070E017C0CE01019685
:101030007C0101E110E020E030E047E851E060E0B1
:1010400070E00BC0DE0111967D0101E110E020E0AF
:1010500030E048E951E060E070E080EA0E94AE00D4
:10106000F50180814AE0BE01655D7F4F90E00E94FE
:10107000580A6CEB70E0CE0183960E94460AD501B7
:1010800013968C914AE0BE01685D7F4F90E00E940C
:10109000580ABC01CE0183960E943B0AB2E09B161F
:1010A00089F0B91530F0E1E09E1213C0CE014296EE
:1010B0000EC0F3E09F1649F084E098120AC0CE01FA
:1010C000839605C0CE018B9602C0CE0101960E9488
:1010D000EC068DEF890DBE01823030F4655D7F4FE7
:1010E000C6010E94460A10C06E5E7F4FC6010E9474
:1010F000460A6FEB70E0C6010E943B0ABE01655DC7
:101100007F4FC6010E943B0A60EC70E0C6010E945E
:101110003B0ABE016F5F7F4FC6010E943B0A60EC35
:1011200070E0C6010E943B0ABE016D5D7F4FC601A3
:101130000E943B0A60EC70E0C601AD960FB6F894D1
:10114000DEBF0FBECDBFDF91CF911F910F91FF90FA
:10115000EF90DF90CF90BF90AF909F900C943B0AA0
:10116000982F92959F708F702AE0929F800D112486
:1011700008950F931F93CF93DF9300D000D0CDB786
:10118000DEB78C019E012F5F3F4F43E062E082EAB1
:101190000E94610189810E94B008F80180838A81E0
:1011A0000E94B008F80181838B810E94B008F80189
:1011B00082830F900F900F900F90DF91CF911F912E
:1011C0000F9108950F931F93CF93DF9300D000D01A
:1011D000CDB7DEB78C019E012F5F3F4F44E065E045
:1011E00082EA0E94610189810E94B008F80180832F
:1011F0008A8181838B810E94B008F80182838C816F
:101200000E94B008F80183830F900F900F900F9009
:10121000DF91CF911F910F9108956AE00E94070A14
:10122000292F30E1839FC0011124822B0895CF9391
:10123000DF93CDB7DEB7AA970FB6F894DEBF0FBE27
:10124000CDBF8AA58E7F8AA78FEF87BB18BA809102
:101250000A01846080930A0183E18CBF83B78860B0
:1012600083BF83B7826083BF89B7826089BF85B738
:10127000826085BF8BB780648BBF929A60E971E012
:1012800080E090E00E9402010E94D7028BE091E092
:101290000E94B9088EE091E00E94E2087894412C07
:1012A000512C3201812C912C5401D12C11E08AA5B2
:1012B00080FF23C044E050E064E070E08EE091E005
:1012C0000E948D0A43E050E061E070E08BE091E025
:1012D0000E948D0A8EE091E00E94CE068BE091E0A4
:1012E0000E94B3068AA58E7F8AA741E050E060E0A5
:1012F00070E0CE018A960E949D0A81E0D816D9F04E
:101300000E949C010E94CC0180931601882331F138
:10131000F894409012015090130160901401709065
:101320001501789480E5882E83EC982EA12CB12CA1
:10133000DD24D39414C01092160180911201909173
:101340001301A0911401B091150184199509A60902
:10135000B70988159905AA05BB0508F0D12C80911D
:101360000A0182FF48C0112311F180FF16C0E091ED
:101370006000F091610004851585268537854085DC
:10138000518562857385CE0101967C0180EA0E94B9
:10139000AE0060E080E00E94A802E0916000F09161
:1013A00061000088F189E02DCE01019609958091B8
:1013B0001601E0916000F0916100823219F482819F
:1013C00093810EC0813219F48081918109C08431EA
:1013D00019F48681978104C0843269F484819581EF
:1013E000009749F020910A01216020930A0190930F
:1013F000610080936000E0916000F091610011E075
:1014000080899189892B09F052CF10E050CF991B28
:1014100079E004C0991F961708F0961B881F7A95EB
:10142000C9F780950895A1E21A2EAA1BBB1BFD01E6
:101430000DC0AA1FBB1FEE1FFF1FA217B307E407B3
:10144000F50720F0A21BB30BE40BF50B661F771F0B
:10145000881F991F1A9469F76095709580959095EB
:101460009B01AC01BD01CF010895EE0FFF1F059058
:10147000F491E02D0994FB01DC010D900020E9F7C7
:10148000119701900D920020E1F70895FB01DC0116
:1014900001900D920020E1F708954532510520F4A6
:1014A000423010F00C94580AFB011082CB010895D1
:1014B000BB274A3031F4992322F4BDE290958195FF
:1014C0009F4F0C94640ABB27FB015527AA27880F5E
:1014D000991FAA1FA41710F0A41B83955051B9F7A8
:1014E000A05DAA3308F0A95DA193009779F7B11127
:1014F000B1931192CB010C947D0ADC01FC01672FA2
:1015000071917723E1F7329704C07C916D937083DA
:101510006291AE17BF07C8F30895DC01CB01FC014F
:10152000E199FECF06C0FFBBEEBBE09A31960DB24B
:101530000D9241505040B8F70895DC01A40FB51F3B
:101540004150504048F0CB01840F951F2E910E94CE
:10155000AE0A41505040D0F70895262FE199FECFB2
:101560009FBB8EBBE09A01970DB2021631F02DBBE6
:101570000FB6F894E29AE19A0FBE0895F894FFCF5F
:10158000AA007400860098000000550000001100B9
:101590000000830386006200980000004400000001
:1015A00011000000E904620074009800000033009C
:1015B0000000110000005003AA00AA0000008600ED
:1015C0002200000011000000200398009800000095
:1015D000000000000000110000000B043230002C5D
:0215E0002000E9
:00000001FF
